:03000000020E22CB
:0C0E2200787FE4F6D8FD758125020DE90B
:0B0E2E00457863657074696F6E2000EA
:100DE900E4F51EF51DF51CF51BF522F521F520F599
:100DF9001F75243D752330120000E4FFFE120DC457
:030E0900020BAB2E
:100BAB00E4F509F50A7409250AF58274003509F58F
:100BBB00837420F0050AE50A70020509640A4509E9
:100BCB0070E3750B00750C09120E398F08120E0CA1
:100BDB00EF602C7410650C70047400650B700302CD
:100BEB000C96850C82850B83E508F07B017A0079E6
:100BFB0009120D50050CE50C7002050B020C96E565
:100C0B00237B017A007909B4300D120C9C8F1E8E58
:100C1B001D8D1C8C1B800B120C9C8F228E218D200A
:100C2B008C1F750B00750C09E4F509F50A74092581
:100C3B000AF58274003509F5837420F0050AE50A7C
:100C4B0070020509640A450970E3850824E524B49C
:100C5B004303FF8002AF23120979E4F509F50A7407
:100C6B0000250AF58274003509F5837420F0050A16
:100C7B00E50A70020509640A450970E3750B0075F6
:100C8B000C09E524643D6003852423850825020BAC
:010C9B00D385
:10097900EF24D67003020A0724FD604524FE7003A4
:10098900020A3E24EC7003020A8D24186003020A4D
:10099900A8E524643D6012C3E525648094B0405BFA
:1009A900D3E525648094B95052E51E2522F51EE54C
:1009B9001D3521F51DE51C3520F51CE51B351F806E
:1009C9002FE524643D6012C3E525648094B0402B73
:1009D900D3E525648094B95022C3E51E9522F51EFE
:1009E900E51D9521F51DE51C9520F51CE51B951FB9
:1009F900F51BAF1EAE1DAD1CFC807B020AA8E524C9
:100A0900643D6012C3E525648094B04026D3E52592
:100A1900648094B9501DAF1EAE1DAD1CAC1BAB223A
:100A2900AA21A920A81F1208468F1E8E1D8D1C8C75
:100A39001B8043806AE524643D6012C3E525648018
:100A490094B0403ED3E525648094B95035AF22AEC9
:100A590021AD20AC1FEC4D4E4F6022AF1EAE1DAD37
:100A69001CAC1BAB22AA21A920A81F120D0C8F1E9A
:100A79008E1D8D1C8C1B120D8D8F0D8025750D0201
:100A89008020801BE4F51EF51DF51CF51BF522F5EC
:100A990021F520F51F752430752330F50D80037578
:0C0AA9000D01AF0DEF3395E0FE020DC40F
:100D8D008F118E108D0F8C0E7F817E697D677CFF9C
:100D9D00AB11AA10A90FA80EC312089540147F7F9E
:100DAD007E967D987C00A80ED31208955004E4FE23
:070DBD00FF227E007F0222ED
:100DC400EE7018EF14601D1460112402700DAF1E34
:100DD400AE1DAD1CAC1B120AB580067BFF7A0E79E2
:050DE4002E120D50224B
:060C9C008B0D8A0E890F8A
:100CA200E4F513F512F511F510AB0DAA0EA90F120A
:100CB2000800FF6420604AEF3395E0FEEF24D0FF86
:100CC200EE34FFFE3395E08F178E16F515F514E41A
:100CD2007F0AFEFDFCAB13AA12A911A81012084646
:100CE200EF2517F513EE3516F512ED3515F511EC66
:100CF2003514F5107401250FF50FE4350EF50E804D
:090D0200A8AF13AE12AD11AC1044
:010D0B0022C5
:100AB5008F118E108D0F8C0E751200751309E4754C
:100AC500170AF516F515F514EC4D4E4F700C8513F8
:100AD500828512837430F0020BA4AC0EEC335032D5
:100AE500900000742DF0E47F02FEFDFCAB11AA100E
:100AF500A90FA80E120846A804A905AA06C3E51160
:100B05009FF511E5109AF510E50F99F50FE50E988B
:100B1500F50EE4F519F51AAB17AA16A915A814AF21
:100B250011AE10AD0FAC0E120D0CAF038F18AB1735
:100B3500AA16A915A814AF11AE10AD0FAC0E120D63
:100B45000CE5187011EC4D4E4F700B851382851214
:100B5500837420F0800BE518243085138285128379
:100B6500F0AF11AE10AD0FAC0EE47B0AFAF9F81236
:100B75000D0C8F118E108D0F8C0E74016513700482
:100B8500740065126008E513151370021512051A35
:100B9500E51A70020519640945196003020B1C7BEF
:050BA500017A00790057
:010BAA002228
:100E0C00C3EF648094B0400BD3EF648094B950036B
:060E1C007F01227F00228D
:060E3900120000EF60FA58
:010E3F002290
:060D50008B0E8A0F8910D2
:100D5600E4F511F512120000D3E5129409E51164C9
:100D66008094805021AB0EAA0FA91085128285119E
:100D760083120819FF642060031200000512E512B1
:060D860070D6051180D2B9
:010D8C002244
:10080000BB010689828A83E0225002E722BBFE02F6
:09081000E32289828A83E4932229
:10081900BB010CE58229F582E5833AF583E0225094
:1008290006E92582F8E622BBFE06E92582F8E222DE
:0D083900E58229F582E5833AF583E49322F8
:10084600E88FF0A4CC8BF0A42CFCE98EF0A42CFC51
:100856008AF0EDA42CFCEA8EF0A4CDA8F08BF0A4CF
:100866002DCC3825F0FDE98FF0A42CCD35F0FCEB2E
:100876008EF0A4FEA9F0EB8FF0A4CFC5F02ECD39F3
:0F088600FEE43CFCEAA42DCE35F0FDE43CFC2260
:100D0C00C2D5E830E70FB2D5E4C39BFBE49AFAE412
:100D1C0099F9E498F8EC30E717B2D5120D421208A5
:100D2C00E7E4C39BFBE49AFAE499F9E498F88003AE
:100D3C001208E730D50DE4C39FFFE49EFEE49DFD51
:040D4C00E49CFC2205
:10089500EB9FF5F0EA9E42F0E99D42F0EC6480C8DA
:0608A50064809845F0227A
:1008AB0075F008758200EF2FFFEE33FECD33CDCC04
:1008BB0033CCC58233C5829BED9AEC99E582984087
:1008CB000CF582EE9BFEED9AFDEC99FC0FD5F0D664
:1008DB00E4CEFBE4CDFAE4CCF9A88222B800C1B98E
:1008EB000059BA002DEC8BF084CFCECDFCE5F0CBCC
:1008FB00F97818EF2FFFEE33FEED33FDEC33FCEB05
:10090B0033FB10D703994004EB99FB0FD8E5E4F9BF
:10091B00FA227818EF2FFFEE33FEED33FDEC33FCAC
:10092B00C933C910D7059BE99A4007EC9BFCE99AA0
:10093B00F90FD8E0E4C9FAE4CCFB2275F010EF2FE5
:10094B00FFEE33FEED33FDCC33CCC833C810D707E5
:10095B009BEC9AE899400AED9BFDEC9AFCE899F820
:0E096B000FD5F0DAE4CDFBE4CCFAE4C8F922B3
:00000001FF
